:100000000C942A000C9447000C9447000C94470071
:100010000C9447000C9447000C9447000C94470044
:100020000C9447000C9447000C9420130C94ED1290
:100030000C9447000C940B170C943E170C947117FA
:100040000C9447000C9447000C9447000C94470014
:100050000C94470011241FBECFE5D8E0DEBFCDBF12
:1000600015E0A0E6B0E0ECECFFE202C005900D92D6
:10007000A634B107D9F718E0A6E4B5E001C01D9297
:10008000A137B107E1F70E94A3050C94E4170C9483
:100090000000EF92FF920F931F937B018C0120E0F1
:1000A00030E040E05FE40E94490388238CF0C801FF
:1000B000B70120E030E040E05FE40E94C1010E940F
:1000C000A9039B01AC01205030404040504806C07D
:1000D000C801B7010E94A9039B01AC01B901CA0183
:1000E0001F910F91FF90EF900895A0E0B0E0EBE733
:1000F000F0E00C94A417DC012B01FA019C919230E2
:1001000008F439C1EB018881823008F433C194309E
:1001100069F4843009F02FC111969C91119789815F
:10012000981709F428C1A8E3B5E025C1843009F483
:1001300021C18230A9F4923009F01DC19A01AD01AC
:1001400088E0EA010990AE01E90109929E0181501F
:10015000C1F7E201898111969C918923818308C1AD
:10016000923009F407C112962D903C901397EB0141
:100170008A819B811496AD90BD90CD90DC901797AD
:10018000EC80FD800E811F819101281B390BB90184
:1001900037FF04C066277727621B730B6032710537
:1001A0000CF061C0121613066CF537014801062EDB
:1001B00004C096948794779467940A94D2F721E0C8
:1001C00030E040E050E004C0220F331F441F551FB1
:1001D0006A95D2F721503040404050402E213F21B7
:1001E00040235123211531054105510521F021E01E
:1001F00030E040E050E079018A01E628F72808293C
:1002000019293CC0232BD1F1260E371E350146019A
:10021000062E04C096948794779467940A94D2F734
:1002200021E030E040E050E004C0220F331F441FC3
:10023000551F6A95D2F721503040404050402A2146
:100240003B214C215D21211531054105510521F04E
:1002500021E030E040E050E059016A01A628B728CB
:10026000C828D9280BC0821593052CF01C01AA249C
:10027000BB24650103C0EE24FF24870111969C91E5
:10028000D20111968C91981709F445C0992339F041
:10029000A80197012A193B094C095D0906C0A6016E
:1002A00095012E193F09400B510B57FD08C01182D3
:1002B0003382228224833583468357831DC081E0A5
:1002C00081833382228288279927DC01821B930B4A
:1002D000A40BB50B84839583A683B7830DC0220F2F
:1002E000331F441F551F24833583468357838281E0
:1002F000938101979383828324813581468157813D
:10030000DA01C9010197A109B1098F5F9F4FAF4F72
:10031000BF4328F30BC0918333822282EA0CFB1C7B
:100320000C1D1D1DE482F5820683178383E0808304
:10033000248135814681578157FF1AC0C901AA27F8
:1003400097FDA095BA2F81709070A070B0705695EF
:10035000479537952795822B932BA42BB52B848318
:100360009583A683B7838281938101969383828349
:10037000DF0101C0D201CD01CDB7DEB7E2E10C94BF
:10038000C017A0E2B0E0E7ECF1E00C94B01769838D
:100390007A838B839C832D833E834F835887E9E048
:1003A000EE2EF12CEC0EFD1ECE010196B7010E943F
:1003B000D2048E010F5E1F4FCE010596B8010E9438
:1003C000D2048A8991E089278A8BC701B801AE01DE
:1003D000475E5F4F0E9475000E94FD03A096E6E015
:1003E0000C94CC17A0E2B0E0E8EFF1E00C94B01769
:1003F00069837A838B839C832D833E834F835887C5
:10040000F9E0EF2EF12CEC0EFD1ECE010196B701A6
:100410000E94D2048E010F5E1F4FCE010596B801D7
:100420000E94D204C701B801AE01475E5F4F0E942F
:1004300075000E94FD03A096E6E00C94CC17A0E2A4
:10044000B0E0E5E2F2E00C94A41769837A838B8331
:100450009C832D833E834F835887CE010196BE0136
:10046000675F7F4F0E94D204CE010596BE016F5E8A
:100470007F4F0E94D2049985923088F0898982301A
:10048000C8F0943019F4823051F404C0843029F457
:10049000923081F488E395E0C6C0923049F420E0C0
:1004A0009A858A89981321E02A87CE010996BBC0D4
:1004B000823049F420E09A858A89981321E02A8BBA
:1004C000CE014196B0C02D843E844F8458886D88FB
:1004D0007E888F88988CEE24FF248701AA24BB2471
:1004E000650140E050E060E070E0E0E0F0E0C10174
:1004F00081709070892BE9F0E60CF71C081D191D1E
:100500009A01AB012A0D3B1D4C1D5D1D80E090E062
:10051000A0E0B0E0E614F7040805190520F481E036
:1005200090E0A0E0B0E0BA01A901480F591F6A1F8E
:100530007B1FAA0CBB1CCC1CDD1C97FE08C081E0F5
:1005400090E0A0E0B0E0A82AB92ACA2ADB2A3196B6
:10055000E032F10549F0660C771C881C991C569412
:10056000479437942794C3CFFA85EA892B893C892D
:100570008B859C85280F391F2E5F3F4F17C0CA01FE
:1005800081709070892B61F016950795F794E79428
:1005900080E090E0A0E0B0E8E82AF92A0A2B1B2BC3
:1005A00076956795579547952F5F3F4F77FDE7CF36
:1005B0000CC0440F551F661F771F17FD4160EE0CDE
:1005C000FF1C001F111F21503040403090E05907A0
:1005D00090E0690790E4790760F32B8F3C8FDB0193
:1005E000CA018F779070A070B07080349105A1051A
:1005F000B10561F447FD0AC0E114F10401051105DC
:1006000029F0405C5F4F6F4F7F4F40781A8EFE1786
:1006100011F081E08A8F4D8F5E8F6F8F78A383E01A
:10062000898FCE0149960E94FD03A096E2E10C94C9
:10063000C017A8E1B0E0EFE1F3E00C94B0176983D4
:100640007A838B839C832D833E834F83588789E0F5
:10065000E82EF12CEC0EFD1ECE010196B7010E9492
:10066000D2048E010F5E1F4FCE010596B8010E9485
:10067000D2048985823040F08989823028F0C70110
:10068000B8010E944A0501C08FEF6896E6E00C941D
:10069000CC17A8E1B0E0EFE4F3E00C94B017698365
:1006A0007A838B839C832D833E834F83588789E095
:1006B000E82EF12CEC0EFD1ECE010196B7010E9432
:1006C000D2048E010F5E1F4FCE010596B8010E9425
:1006D000D2048985823040F08989823028F0C701B0
:1006E000B8010E944A0501C08FEF6896E6E00C94BD
:1006F000CC17A8E1B0E0EFE7F3E00C94B017698302
:100700007A838B839C832D833E834F83588789E034
:10071000E82EF12CEC0EFD1ECE010196B7010E94D1
:10072000D2048E010F5E1F4FCE010596B8010E94C4
:10073000D2048985823040F08989823028F0C7014F
:10074000B8010E944A0501C081E06896E6E00C9479
:10075000CC17ACE0B0E0EFEAF3E00C94B417698397
:100760007A838B839C83CE010196BE016B5F7F4FA2
:100770000E94D2048D81823061F1823050F1843048
:1007800021F48E81882351F12EC02F81388537FDC9
:1007900020C06E812F3131051CF06623F9F023C093
:1007A0008EE190E0821B930B29853A854B855C8511
:1007B00004C056954795379527958A95D2F76623B5
:1007C000B1F050954095309521953F4F4F4F5F4F79
:1007D0000EC020E030E040E050E009C02FEF3FEFD6
:1007E0004FEF5FE704C020E030E040E050E8B9019F
:1007F000CA012C96E2E00C94D017DF92EF92FF92A0
:100800000F931F93FC01E480F58006811781D1804E
:100810008081823048F480E090E0A0E1B0E0E82AF6
:10082000F92A0A2B1B2BA5C0843009F49FC0823003
:1008300021F4EE24FF24870105C0E114F104010531
:10084000110519F4E0E0F0E096C0628173819FEF3A
:10085000623879070CF05BC022E83FEF261B370BAC
:100860002A3131052CF020E030E040E050E02AC091
:10087000B801A701022E04C0769567955795479554
:100880000A94D2F781E090E0A0E0B0E004C0880FC5
:10089000991FAA1FBB1F2A95D2F70197A109B10979
:1008A0008E219F21A023B1230097A105B10521F03E
:1008B00081E090E0A0E0B0E09A01AB01282B392B59
:1008C0004A2B5B2BDA01C9018F779070A070B07052
:1008D00080349105A105B10539F427FF09C0205CDA
:1008E0003F4F4F4F5F4F04C0215C3F4F4F4F5F4F13
:1008F000E0E0F0E02030A0E03A07A0E04A07A0E402
:100900005A0710F0E1E0F0E079018A0127C0603871
:10091000710564F5FB01E158FF4FD801C7018F77DE
:100920009070A070B07080349105A105B10539F4C4
:10093000E7FE0DC080E490E0A0E0B0E004C08FE3EB
:1009400090E0A0E0B0E0E80EF91E0A1F1B1F17FFA1
:1009500005C016950795F794E794319687E01695AC
:100960000795F794E7948A95D1F705C0EE24FF2404
:100970008701EFEFF0E06E2F679566276795902F60
:100980009F77D794DD24D7948E2F8695492F462BB9
:10099000582F5D29B701CA011F910F91FF90EF9069
:1009A000DF900895FC01DB01408151812281622F9B
:1009B0006F7770E0221F2227221F9381892F880FD3
:1009C000822B282F30E0991F9927991F11969C930D
:1009D000119721153105A9F54115510561057105DD
:1009E00011F482E037C082E89FEF13969C938E93B8
:1009F00012979A01AB0167E0220F331F441F551F66
:100A00006A95D1F783E08C930DC0220F331F441FEA
:100A1000551F12968D919C911397019713969C9355
:100A20008E931297203080E0380780E0480780E4FA
:100A3000580758F314962D933D934D935C93179755
:100A400008952F3F310579F4411551056105710570
:100A500019F484E08C93089564FF03C081E08C93C3
:100A600012C01C9210C02F57304013963C932E9307
:100A7000129783E08C9387E0440F551F661F771F02
:100A80008A95D1F7706414964D935D936D937C9322
:100A9000179708951F93DC01FB019C91923008F495
:100AA00047C08081823008F443C0943051F41196DD
:100AB0001C91843099F58181682F70E0611B710968
:100AC0003FC0843021F0923031F48230B9F181811D
:100AD000882389F12DC011961C9111978230F1F075
:100AE00081811817D9F412962D913C911397828128
:100AF00093818217930794F028173907BCF0149656
:100B00008D919D910D90BC91A02D248135814681C0
:100B10005781281739074A075B0718F4112341F05A
:100B20000AC082179307A407B50740F4112319F0F0
:100B300061E070E005C06FEF7FEF02C060E070E041
:100B4000CB011F910895DF93CF93CDB7DEB70E94FD
:100B50008A090E946C150E9463120E94471280E06D
:100B600090E00E94F0130E943C0FFFCFDF93CF93E1
:100B7000CDB7DEB72D970FB6F894DEBF0FBECDBF51
:100B800089836A834B838981843008F009C18A8113
:100B9000883008F005C18B81823008F001C189815D
:100BA000282F30E03D872C878C859D8581309105ED
:100BB00009F44FC02C853D85223031052CF48C85FD
:100BC0009D85009771F0ECC02C853D852230310564
:100BD00009F477C08C859D858330910509F4A9C0FF
:100BE000DFC08B81282F30E03B872A878A859B8551
:100BF000009731F02A853B8521303105B1F0D0C016
:100C0000AAE3B0E0EAE3F0E08081482F8A81282F50
:100C100030E081E090E0022E02C0880F991F0A9414
:100C2000E2F7809584238C93BBC0AAE3B0E0EAE3AB
:100C3000F0E08081482F8A81282F30E081E090E029
:100C4000022E02C0880F991F0A94E2F7842B8C931E
:100C5000A7C08B81282F30E0398728878885998520
:100C6000009731F02885398521303105B1F098C0E1
:100C7000A7E3B0E0E7E3F0E08081482F8A81282FE6
:100C800030E081E090E0022E02C0880F991F0A94A4
:100C9000E2F7809584238C9383C0A7E3B0E0E7E379
:100CA000F0E08081482F8A81282F30E081E090E0B9
:100CB000022E02C0880F991F0A94E2F7842B8C93AE
:100CC0006FC08B81282F30E03F832E838E819F81E0
:100CD000009731F02E813F8121303105B1F060C0A5
:100CE000A4E3B0E0E4E3F0E08081482F8A81282F7C
:100CF00030E081E090E0022E02C0880F991F0A9434
:100D0000E2F7809584238C934BC0A4E3B0E0E4E346
:100D1000F0E08081482F8A81282F30E081E090E048
:100D2000022E02C0880F991F0A94E2F7842B8C933D
:100D300037C08B81282F30E03D832C838C819D81AF
:100D4000009731F02C813D8121303105B1F028C070
:100D5000A1E3B0E0E1E3F0E08081482F8A81282F11
:100D600030E081E090E0022E02C0880F991F0A94C3
:100D7000E2F7809584238C9313C0A1E3B0E0E1E314
:100D8000F0E08081482F8A81282F30E081E090E0D8
:100D9000022E02C0880F991F0A94E2F7842B8C93CD
:100DA0002D960FB6F894DEBF0FBECDBFCF91DF9169
:100DB0000895DF93CF93CDB7DEB72D970FB6F89494
:100DC000DEBF0FBECDBF89836A834B8389818430A8
:100DD00008F009C18A81883008F005C18B81823012
:100DE00008F001C18981282F30E03D872C878C8550
:100DF0009D858130910509F44FC02C853D852230B9
:100E000031052CF48C859D85009771F0ECC02C8504
:100E10003D852230310509F477C08C859D8583306E
:100E2000910509F4A9C0DFC08B81282F30E03B87F2
:100E30002A878A859B85009731F02A853B8521305A
:100E40003105B1F0D0C0ABE3B0E0EBE3F0E080817E
:100E5000482F8A81282F30E081E090E0022E02C0E6
:100E6000880F991F0A94E2F7809584238C93BBC066
:100E7000ABE3B0E0EBE3F0E08081482F8A81282FDC
:100E800030E081E090E0022E02C0880F991F0A94A2
:100E9000E2F7842B8C93A7C08B81282F30E0398711
:100EA000288788859985009731F0288539852130F4
:100EB0003105B1F098C0A8E3B0E0E8E3F0E080814C
:100EC000482F8A81282F30E081E090E0022E02C076
:100ED000880F991F0A94E2F7809584238C9383C02E
:100EE000A8E3B0E0E8E3F0E08081482F8A81282F72
:100EF00030E081E090E0022E02C0880F991F0A9432
:100F0000E2F7842B8C936FC08B81282F30E03F83D6
:100F10002E838E819F81009731F02E813F81213079
:100F20003105B1F060C0A5E3B0E0E5E3F0E0808119
:100F3000482F8A81282F30E081E090E0022E02C005
:100F4000880F991F0A94E2F7809584238C934BC0F5
:100F5000A5E3B0E0E5E3F0E08081482F8A81282F07
:100F600030E081E090E0022E02C0880F991F0A94C1
:100F7000E2F7842B8C9337C08B81282F30E03D83A0
:100F80002C838C819D81009731F02C813D81213013
:100F90003105B1F028C0A2E3B0E0E2E3F0E08081E7
:100FA000482F8A81282F30E081E090E0022E02C095
:100FB000880F991F0A94E2F7809584238C9313C0BD
:100FC000A2E3B0E0E2E3F0E08081482F8A81282F9D
:100FD00030E081E090E0022E02C0880F991F0A9451
:100FE000E2F7842B8C932D960FB6F894DEBF0FBEDC
:100FF000CDBFCF91DF910895DF93CF9300D000D084
:101000000F92CDB7DEB78A836B838A81843008F074
:101010006BC08B81883008F067C08A81282F30E050
:101020003D832C834C815D814130510541F18C81A0
:101030009D818230910534F42C813D81211531054B
:1010400061F052C04C815D814230510551F18C817B
:101050009D8183309105B9F147C0E9E3F0E08081DB
:10106000282F30E08B81882F90E0A90102C0559590
:1010700047958A95E2F7CA018170898335C0E6E316
:10108000F0E08081282F30E08B81882F90E0A9014B
:1010900002C0559547958A95E2F7CA018170898308
:1010A00023C0E3E3F0E08081282F30E08B81882F9C
:1010B00090E0A90102C0559547958A95E2F7CA01CB
:1010C0008170898311C0E0E3F0E08081282F30E057
:1010D0008B81882F90E0A90102C0559547958A958C
:1010E000E2F7CA018170898389810F900F900F9078
:1010F0000F900F90CF91DF910895DF93CF9300D0A1
:1011000000D0CDB7DEB789836A838981843008F047
:1011100072C08A81883008F06EC08981282F30E043
:101120003C832B838B819C818130910549F12B81FC
:101130003C81223031052CF48B819C81009761F039
:101140005AC02B813C812230310571F18B819C8109
:1011500083309105E9F14FC0ABE3B0E0EBE3F0E0A1
:101160008081482F8A81282F30E081E090E0022E94
:1011700002C0880F991F0A94E2F784278C933BC022
:10118000A8E3B0E0E8E3F0E08081482F8A81282FCF
:1011900030E081E090E0022E02C0880F991F0A948F
:1011A000E2F784278C9327C0A5E3B0E0E5E3F0E005
:1011B0008081482F8A81282F30E081E090E0022E44
:1011C00002C0880F991F0A94E2F784278C9313C0FA
:1011D000A2E3B0E0E2E3F0E08081482F8A81282F8B
:1011E00030E081E090E0022E02C0880F991F0A943F
:1011F000E2F784278C930F900F900F900F90CF9170
:10120000DF910895DF93CF9300D000D0CDB7DEB744
:1012100089836A838981843090F58981282F30E021
:101220003C832B838B819C8181309105D1F02B8174
:101230003C81223031052CF48B819C81009761F038
:101240001EC02B813C812230310581F08B819C8135
:101250008330910581F013C0EAE3F0E08A81808356
:101260000EC0E7E3F0E08A81808309C0E4E3F0E0A8
:101270008A81808304C0E1E3F0E08A8180830F905B
:101280000F900F900F90CF91DF910895DF93CF9340
:1012900000D000D0CDB7DEB789836A8389818430DE
:1012A00090F58981282F30E03C832B838B819C81B2
:1012B00081309105D1F02B813C81223031052CF415
:1012C0008B819C81009761F01EC02B813C81223074
:1012D000310581F08B819C818330910581F013C0B1
:1012E000EBE3F0E08A8180830EC0E8E3F0E08A81DE
:1012F000808309C0E5E3F0E08A81808304C0E2E3F3
:10130000F0E08A8180830F900F900F900F90CF9123
:10131000DF910895DF93CF93CDB7DEB7EAE3F0E036
:1013200087E08083E7E3F0E088E08083E4E3F0E0B7
:101330001082E1E3F0E082E08083EBE3F0E01082F2
:10134000E8E3F0E01082E5E3F0E01082E2E3F0E0B1
:101350001082CF91DF910895DF93CF93CDB7DEB7A1
:1013600062970FB6F894DEBF0FBECDBF998B888B06
:101370006A8B88899989892F992780658F870E9430
:101380003F148F850E948C1488890E94FF148A89DB
:101390000E94FF140E94571580E090E0A0E2B1E4A3
:1013A0008B879C87AD87BE876B857C858D859E8569
:1013B00020E030E04AEF54E40E941F02DC01CB0140
:1013C0008F839887A987BA876F81788589859A8561
:1013D00020E030E040E85FE30E94790388232CF4AA
:1013E00081E090E09E838D833FC06F817885898501
:1013F0009A8520E03FEF4FE757E40E941903181643
:101400004CF56B857C858D859E8520E030E040E243
:1014100051E40E941F02DC01CB01BC01CD010E94FE
:101420004900DC01CB019E838D830FC088EC90E0E6
:101430009C838B838B819C810197F1F79C838B83A9
:101440008D819E8101979E838D838D819E810097E2
:1014500069F714C06F81788589859A850E94490053
:10146000DC01CB019E838D838D819E819A8389834C
:1014700089819A810197F1F79A83898362960FB6E1
:10148000F894DEBF0FBECDBFCF91DF910895DF93FB
:10149000CF9300D000D0CDB7DEB79C838B838B81F8
:1014A0009C81892F9927806589830E943F148981B7
:1014B0000E948C148B810E94FF140E946914898100
:1014C0000E94C714CE0102960E9428150E9457154B
:1014D0008A810F900F900F900F90CF91DF91089518
:1014E0000F931F93DF93CF93CDB7DEB7E5970FB67A
:1014F000F894DEBF0FBECDBF809146058A3008F05C
:10150000F5C01F821F8280E690E00E9456160E945E
:101510009E150E949E151E821D8224C08D81082F5B
:1015200010E00E948D16282FCE010896FC01E00FD6
:10153000F11F20838D81282F30E0CE010896FC0119
:10154000E20FF31F8081833251F48D81282F30E028
:10155000CE010896FC01E20FF31F108206C08D81B8
:101560008F5F8D838D818431C8F21C8211C08C8184
:10157000282F30E0CE010896FC01E20FF31F808196
:10158000803219F48F818F5F8F838C818F5F8C8382
:101590008C81282F30E0CE010896FC01E20FF31F6A
:1015A0008081882321F78F81882309F09AC01B82CC
:1015B00020C08B81882F90E0880F991F880F991F7A
:1015C000880F991F9C01220F331F220F331F820F98
:1015D000931F9C012F5A3A4FCE010896B9010E94E1
:1015E000DB17009719F48E818F5F8E838B818F5F5D
:1015F0008B838B818A30E8F28E81882329F081ECFD
:1016000090E00E94561689C08CED90E00E9456161C
:101610000E949E150E949E151A8224C08A81082F5E
:1016200010E00E948D16282FCE014C96FC01E00F91
:10163000F11F20838A81282F30E0CE014C96FC01D7
:10164000E20FF31F8081833251F48A81282F30E02A
:10165000CE014C96FC01E20FF31F108206C08A8176
:101660008F5F8A838A818431C8F22091460528AB36
:10167000E8A98E2F90E0880F991F880F991F880F77
:10168000991F9C01220F331F220F331F820F931FBC
:101690008F5A9A4F9AAB89ABCE0108969CAB8BAB15
:1016A00098E29DABEBA9FCA900808BA99CA90196AF
:1016B0009CAB8BABE9A9FAA9008289A99AA90196EA
:1016C0009AAB89AB9DA991509DABEDA9EE2351F743
:1016D00088A98F5F8093460584E191E00E945616A9
:1016E0001CC08EE391E00E9456160CCF81E791E07A
:1016F0000E9456168BE991E00E9456160E949E1594
:101700000E949E150E948D1689838981893519F062
:101710008981893711F40E949A0B0E943C0FE5964B
:101720000FB6F894DEBF0FBECDBFCF91DF911F91F2
:101730000F9108950F931F93DF93CF93CDB7DEB72B
:10174000CA54D0400FB6F894DEBF0FBECDBF81EDB6
:1017500091E00E9456160E949E150E949E151886C2
:1017600024C08885082F10E00E948D16282FCE01F6
:101770000A96FC01E00FF11F20838885282F30E0B6
:10178000CE010A96FC01E20FF31F8081833251F4EF
:101790008885282F30E0CE010A96FC01E20FF31F66
:1017A000108206C088858F5F888788858431C8F25B
:1017B00019861F8224C18F81882F90E0880F991F7E
:1017C000880F991F880F991F9C01220F331F220F2A
:1017D000331F820F931F8F5A9A4F9E01265F3F4FF0
:1017E000B9010E94DB17009709F006C181E08987E3
:1017F0001E821D8289E092E00E9456160E949E156C
:101800000E949E151C8224C08C81082F10E00E942B
:101810008D16282FCE014E96FC01E00FF11F20837C
:101820008C81282F30E0CE014E96FC01E20FF31F91
:101830008081833251F48C81282F30E0CE014E9686
:10184000FC01E20FF31F108206C08C818F5F8C8336
:101850008C818431C8F21B8211C08B81282F30E02B
:10186000CE014E96FC01E20FF31F8081803219F405
:101870008D818F5F8D838B818F5F8B838B81282FF1
:1018800030E0CE014E96FC01E20FF31F80818823E9
:1018900021F78D81882309F0ABC01A8220C08A818C
:1018A000882F90E0880F991F880F991F880F991F24
:1018B0009C01220F331F220F331F820F931F9C01A5
:1018C0002F5A3A4FCE014E96B9010E94DB1700976E
:1018D00019F48E818F5F8E838A818F5F8A838A81DC
:1018E0008A30E8F28E81882329F081EC90E00E9412
:1018F00056168BC082E292E00E9456160E949E15F8
:101900000E949E15198224C08981082F10E00E9430
:101910008D16282FCE01C296FC01E00FF11F208307
:101920008981282F30E0CE01C296FC01E20FF31F1F
:101930008081833251F48981282F30E0CE01C29614
:10194000FC01E20FF31F108206C089818F5F89833B
:1019500089818431C8F28F81882F90E0880F991F88
:10196000880F991F880F991F9C01220F331F220F88
:10197000331F820F931F8F5A9A4F28969FAF8EAFB7
:101980002897CE014E962A969FAF8EAF2A9798E25F
:101990002B969FAF2B972A96EEADFFAD2A9700802E
:1019A0002A968EAD9FAD2A9701962A969FAF8EAF4D
:1019B0002A972896EEADFFAD2897008228968EAD27
:1019C0009FAD2897019628969FAF8EAF28972B96AC
:1019D0009FAD2B9791502B969FAF2B972B96EFADEA
:1019E0002B97EE23C1F68CE392E00E9456160DC0B1
:1019F00085E692E00E9456168F818F5F8F839091CB
:101A000046058F81891708F4D6CE8985882321F46D
:101A100087E892E00E9456160E943C0FC65BDF4F9B
:101A20000FB6F894DEBF0FBECDBFCF91DF911F91EF
:101A30000F9108950F931F93DF93CF93CDB7DEB728
:101A4000AE970FB6F894DEBF0FBECDBF1D828BE9F7
:101A500092E00E9456160E949E150E949E151C82BE
:101A600024C08C81082F10E00E948D16282FCE01F3
:101A70000796FC01E00FF11F20838C81282F30E0B6
:101A8000CE010796FC01E20FF31F8081833251F4EF
:101A90008C81282F30E0CE010796FC01E20FF31F66
:101AA000108206C08C818F5F8C838C818431C8F258
:101AB0001B829DC08B81882F90E0880F991F880F13
:101AC000991F880F991F9C01220F331F220F331F6C
:101AD000820F931F9C012F5A3A4FCE010796B901EE
:101AE0000E94DB17009709F07FC081E08D831A8286
:101AF0006BC083ED92E00E9456160E949E150E94D4
:101B00009E15198224C08981082F10E00E948D162D
:101B1000282FCE014B96FC01E00FF11F2083898115
:101B2000282F30E0CE014B96FC01E20FF31F80819D
:101B3000833251F48981282F30E0CE014B96FC018D
:101B4000E20FF31F108206C089818F5F898389812C
:101B50008431C8F28B81882F90E0880F991F880FFD
:101B6000991F880F991F9C01220F331F220F331FCB
:101B7000820F931F44969C012F5A3A4FCE0107962D
:101B80004496B9010E94DB170097B9F48CE093E00A
:101B90000E9456160E949E150E949E150E948D1648
:101BA0008E838E81813319F40E94600F11C08E8163
:101BB000823371F40E949A0B0BC08A818F5F8A83F3
:101BC0008BE293E00E9456168A81833008F491CF0D
:101BD0008A81833091F482E593E00E9456160E9438
:101BE000110E0E943C0F09C08B818F5F8B839091F7
:101BF00046058B81891708F45DCF8D81882331F4E8
:101C000085E893E00E9456160E943C0FAE960FB6F0
:101C1000F894DEBF0FBECDBFCF91DF911F910F9122
:101C20000895DF93CF93CDB7DEB7A2970FB6F894A0
:101C3000DEBF0FBECDBF1AA219A20CC118A21F8E03
:101C40007AC08F8D0E94971280E090E0A8E4B3E400
:101C5000898F9A8FAB8FBC8F698D7A8D8B8D9C8D80
:101C600020E030E04AEF54E40E941F02DC01CB0187
:101C70008D8B9E8BAF8BB88F6D897E898F89988D68
:101C800020E030E040E85FE30E94790388232CF4F1
:101C900081E090E09C8B8B8B3FC06D897E898F8922
:101CA000988D20E03FEF4FE757E40E941903181684
:101CB0004CF5698D7A8D8B8D9C8D20E030E040E273
:101CC00051E40E941F02DC01CB01BC01CD010E9446
:101CD0004900DC01CB019C8B8B8B0FC088EC90E022
:101CE0009A8B898B89899A890197F1F79A8B898BCD
:101CF0008B899C8901979C8B8B8B8B899C89009706
:101D000069F714C06D897E898F89988D0E9449007A
:101D1000DC01CB019C8B8B8B8B899C89988B8F876B
:101D20008F8598890197F1F7988B8F878F8D98A170
:101D30000A9698A38F8F8F8D98A18F3F910508F4F5
:101D400080CF8FEF90E09E8F8D8F7AC08D8D0E9417
:101D5000971280E090E0A8E4B3E48B879C87AD877E
:101D6000BE876B857C858D859E8520E030E04AEFBF
:101D700054E40E941F02DC01CB018F839887A9875E
:101D8000BA876F81788589859A8520E030E040E8C0
:101D90005FE30E94790388232CF481E090E09E8326
:101DA0008D833FC06F81788589859A8520E03FEFDC
:101DB0004FE757E40E94190318164CF56B857C8594
:101DC0008D859E8520E030E040E251E40E941F02B4
:101DD000DC01CB01BC01CD010E944900DC01CB013B
:101DE0009E838D830FC088EC90E09C838B838B81D6
:101DF0009C810197F1F79C838B838D819E81019754
:101E00009E838D838D819E81009769F714C06F81B9
:101E1000788589859A850E944900DC01CB019E83E3
:101E20008D838D819E819A83898389819A8101978F
:101E3000F1F79A8389838D8D9E8D0A979E8F8D8F62
:101E40008D8D9E8D99230CF081CF89A19AA1019649
:101E50009AA389A389A19AA1833091050CF4EECEAF
:101E600080E00E949712A2960FB6F894DEBF0FBED4
:101E7000CDBFCF91DF910895DF93CF930F92CDB770
:101E8000DEB719828CEA93E00E94561681EC93E04B
:101E90000E9456160E949E150E949E150E948D1645
:101EA00089838981813319F40E941A0D05C08981C3
:101EB000823311F40E94700A0F90CF91DF91089540
:101EC000DF93CF9300D0CDB7DEB71A82198287EDAA
:101ED00093E00E9456168BEE93E00E9456168CEF0C
:101EE00093E00E9456168EE094E00E94561688E118
:101EF00094E00E94561683E294E00E9456160E94D7
:101F00009E150E949E150E948D16898389818133BA
:101F100029F40E94B70F0E94600F24C08981823388
:101F200029F40E945B100E94600F1CC089818333DA
:101F300029F40E94FF100E94600F14C0898184332D
:101F400029F40E94A3110E94600F0CC0898185337F
:101F500019F40E943C0F06C08EE294E00E945616CF
:101F60000E94600F0F900F90CF91DF910895DF9343
:101F7000CF93CDB7DEB72F970FB6F894DEBF0FBE65
:101F8000CDBF1F8680E060E00E94FC078F878F85B1
:101F9000813029F48AE494E00E94561683C082E6D8
:101FA00094E00E94561680E060E041E00E94D9066D
:101FB00080E090E0AAE7B4E48B879C87AD87BE877A
:101FC0006B857C858D859E8520E030E04AEF54E46A
:101FD0000E941F02DC01CB018F839887A987BA87F3
:101FE0006F81788589859A8520E030E040E85FE35D
:101FF0000E94790388232CF481E090E09E838D83F6
:102000003FC06F81788589859A8520E03FEF4FE753
:1020100057E40E94190318164CF56B857C858D8555
:102020009E8520E030E040E251E40E941F02DC0186
:10203000CB01BC01CD010E944900DC01CB019E8394
:102040008D830FC088EC90E09C838B838B819C8177
:102050000197F1F79C838B838D819E8101979E83ED
:102060008D838D819E81009769F714C06F8178857B
:1020700089859A850E944900DC01CB019E838D836E
:102080008D819E819A83898389819A810197F1F755
:102090009A83898389E794E00E94561687E894E042
:1020A0000E9456162F960FB6F894DEBF0FBECDBF16
:1020B000CF91DF910895DF93CF93CDB7DEB72F9700
:1020C0000FB6F894DEBF0FBECDBF1F8680E060E084
:1020D0000E94FC078F878F85882329F480EA94E08B
:1020E0000E94561683C088EB94E00E94561680E04A
:1020F00060E040E00E94D90680E090E0AAE7B4E406
:102100008B879C87AD87BE876B857C858D859E85FB
:1021100020E030E04AEF54E40E941F02DC01CB01D2
:102120008F839887A987BA876F81788589859A85F3
:1021300020E030E040E85FE30E94790388232CF43C
:1021400081E090E09E838D833FC06F817885898593
:102150009A8520E03FEF4FE757E40E9419031816D5
:102160004CF56B857C858D859E8520E030E040E2D6
:1021700051E40E941F02DC01CB01BC01CD010E9491
:102180004900DC01CB019E838D830FC088EC90E079
:102190009C838B838B819C810197F1F79C838B833C
:1021A0008D819E8101979E838D838D819E81009775
:1021B00069F714C06F81788589859A850E944900E6
:1021C000DC01CB019E838D838D819E819A838983DF
:1021D00089819A810197F1F79A8389838EEC94E043
:1021E0000E94561687E894E00E9456162F960FB666
:1021F000F894DEBF0FBECDBFCF91DF910895DF937E
:10220000CF93CDB7DEB72F970FB6F894DEBF0FBED2
:10221000CDBF1F8680E061E00E94FC078F878F851D
:10222000813029F48CED94E00E94561683C080EF33
:1022300094E00E94561680E061E041E00E94D906D9
:1022400080E090E0AAE7B4E48B879C87AD87BE87E7
:102250006B857C858D859E8520E030E04AEF54E4D7
:102260000E941F02DC01CB018F839887A987BA8760
:102270006F81788589859A8520E030E040E85FE3CA
:102280000E94790388232CF481E090E09E838D8363
:102290003FC06F81788589859A8520E03FEF4FE7C1
:1022A00057E40E94190318164CF56B857C858D85C3
:1022B0009E8520E030E040E251E40E941F02DC01F4
:1022C000CB01BC01CD010E944900DC01CB019E8302
:1022D0008D830FC088EC90E09C838B838B819C81E5
:1022E0000197F1F79C838B838D819E8101979E835B
:1022F0008D838D819E81009769F714C06F817885E9
:1023000089859A850E944900DC01CB019E838D83DB
:102310008D819E819A83898389819A810197F1F7C2
:102320009A83898380E095E00E94561687E894E0BE
:102330000E9456162F960FB6F894DEBF0FBECDBF83
:10234000CF91DF910895DF93CF93CDB7DEB72F976D
:102350000FB6F894DEBF0FBECDBF1F8680E061E0F0
:102360000E94FC078F878F85882329F489E095E0F8
:102370000E94561683C08DE195E00E94561680E0BB
:1023800061E040E00E94D90680E090E0AAE7B4E472
:102390008B879C87AD87BE876B857C858D859E8569
:1023A00020E030E04AEF54E40E941F02DC01CB0140
:1023B0008F839887A987BA876F81788589859A8561
:1023C00020E030E040E85FE30E94790388232CF4AA
:1023D00081E090E09E838D833FC06F817885898501
:1023E0009A8520E03FEF4FE757E40E941903181643
:1023F0004CF56B857C858D859E8520E030E040E244
:1024000051E40E941F02DC01CB01BC01CD010E94FE
:102410004900DC01CB019E838D830FC088EC90E0E6
:102420009C838B838B819C810197F1F79C838B83A9
:102430008D819E8101979E838D838D819E810097E2
:1024400069F714C06F81788589859A850E94490053
:10245000DC01CB019E838D838D819E819A8389834C
:1024600089819A810197F1F79A8389838EE295E0B9
:102470000E94561687E894E00E9456162F960FB6D3
:10248000F894DEBF0FBECDBFCF91DF910895DF93EB
:10249000CF93CDB7DEB7AFE5B0E0EFE5F0E08081F8
:1024A00080688C93CF91DF910895DF93CF93CDB760
:1024B000DEB7AFE5B0E0EFE5F0E080818F778C9399
:1024C000CF91DF910895DF93CF93CDB7DEB7A3E52A
:1024D000B0E0E3E5F0E0808188608C93A3E5B0E0B4
:1024E000E3E5F0E0808180648C93A9E5B0E0E9E564
:1024F000F0E080818D7F8C93A9E5B0E0E9E5F0E024
:1025000080818E7F8C93ECE5F0E01082A3E5B0E053
:10251000E3E5F0E08081887C8C93A3E5B0E0E3E51F
:10252000F0E0808182628C93CF91DF910895DF93F8
:10253000CF930F92CDB7DEB78983ECE5F0E08981C8
:1025400080830F90CF91DF910895DF93CF930F9207
:10255000CDB7DEB78983E2E5F0E0898180830F9013
:10256000CF91DF910895DF93CF93CDB7DEB7A3E589
:10257000B0E0E3E5F0E08081887F8C93CF91DF913C
:102580000895DF93CF9300D0CDB7DEB79A838983C8
:1025900089819A81009731F089819A8190934805C9
:1025A000809347050F900F90CF91DF910895DF93AF
:1025B000CF9300D0CDB7DEB79A83898389819A8182
:1025C000009731F089819A8190934A05809349055B
:1025D0000F900F90CF91DF9108951F920F920FB639
:1025E0000F9211242F933F934F935F936F937F9399
:1025F0008F939F93AF93BF93EF93FF93DF93CF930B
:10260000CDB7DEB78091470590914805009729F036
:10261000E0914705F09148050995CF91DF91FF9131
:10262000EF91BF91AF919F918F917F916F915F914A
:102630004F913F912F910F900FBE0F901F901895C3
:102640001F920F920FB60F9211242F933F934F9327
:102650005F936F937F938F939F93AF93BF93EF930A
:10266000FF93DF93CF93CDB7DEB78091490590916B
:102670004A05009729F0E0914905F0914A0509952E
:10268000CF91DF91FF91EF91BF91AF919F918F918A
:102690007F916F915F914F913F912F910F900FBE5E
:1026A0000F901F901895DF93CF93CDB7DEB7AFE4AF
:1026B000B0E0EFE4F0E080818E7F8C93AFE4B0E097
:1026C000EFE4F0E0808182608C93AEE4B0E0EEE471
:1026D000F0E0808188608C93AEE4B0E0EEE4F0E05E
:1026E000808180618C93AFE4B0E0EFE4F0E0808122
:1026F0008F7B8C93AFE4B0E0EFE4F0E08081806802
:102700008C93E6E4F0E08FE19EE491838083EAE439
:10271000F0E08CED95E091838083AEE4B0E0EEE4F0
:10272000F0E080818B7F8C93AEE4B0E0EEE4F0E0EB
:10273000808182608C93AEE4B0E0EEE4F0E08081D2
:102740008E7F8C93CF91DF910895DF93CF9300D04C
:10275000CDB7DEB79A838983EAE4F0E089819A8174
:10276000918380830F900F90CF91DF910895DF9335
:10277000CF93CDB7DEB7AEE4B0E0EEE4F0E0808119
:102780008E7F8C93AEE4B0E0EEE4F0E08081826076
:102790008C93AEE4B0E0EEE4F0E080818B7F8C932C
:1027A000CF91DF910895DF93CF9300D0CDB7DEB7FF
:1027B0009A838983ECE4F0E089819A819183808314
:1027C0000F900F90CF91DF910895DF93CF93CDB706
:1027D000DEB7ECE4F0E080819181CF91DF91089544
:1027E000DF93CF930F92CDB7DEB78983A6E5B0E034
:1027F000E6E5F0E0808180648C93E0E2F0E082E046
:102800008083A1E2B0E0E1E2F0E080818E7F8C93F2
:10281000A1E2B0E0E1E2F0E080818D7F8C938981DC
:10282000882329F0E2E2F0E08981880F8083A6E521
:10283000B0E0E6E5F0E0808184608C930F90CF916A
:10284000DF910895DF93CF930F92CDB7DEB78983E1
:10285000E2E2F0E08981880F8083A6E5B0E0E6E55A
:10286000F0E0808180648C93A6E5B0E0E6E5F0E0DE
:10287000808184608C930F90CF91DF910895DF93D6
:10288000CF930F92CDB7DEB71982A6E5B0E0E6E5AB
:10289000F0E0808180628C93A6E5B0E0E6E5F0E0B0
:1028A000808180688C93E6E5F0E080818823DCF706
:1028B000E1E2F0E08081882F90E0887F907088309E
:1028C000910511F081E0898389810F90CF91DF918B
:1028D0000895DF93CF930F92CDB7DEB71982A6E5A7
:1028E000B0E0E6E5F0E08081846A8C93E6E5F0E014
:1028F00080818823DCF7E1E2F0E08081882F90E09E
:10290000887F90708031910511F082E08983898100
:102910000F90CF91DF910895DF93CF9300D00F9266
:10292000CDB7DEB78B831A821982E3E2F0E08B81A8
:10293000880F8083A3E2B0E0E3E2F0E080818E7F45
:102940008C93A6E5B0E0E6E5F0E080818F7D8C9386
:10295000A6E5B0E0E6E5F0E0808180688C93E6E5EE
:10296000F0E080818823DCF7E1E2F0E08081882FCD
:1029700090E0887F90708831910511F083E08A8320
:102980008A810F900F900F90CF91DF910895DF9380
:10299000CF9300D0CDB7DEB78A831982E3E2F0E0AF
:1029A0008A81880F8083A3E2B0E0E3E2F0E08081D7
:1029B00081608C93A6E5B0E0E6E5F0E080818F7D54
:1029C0008C93A6E5B0E0E6E5F0E0808180688C932A
:1029D000E6E5F0E080818823DCF7E1E2F0E0808149
:1029E000882F90E0887F90708034910511F084E00A
:1029F000898389810F900F90CF91DF910895DF93A4
:102A0000CF9300D0CDB7DEB78A831982E3E2F0E03E
:102A10008A818083A6E5B0E0E6E5F0E08081806809
:102A20008C93E6E5F0E080818823DCF7E1E2F0E0DA
:102A30008081882F90E0887F90708832910511F016
:102A400085E0898389810F900F90CF91DF91089560
:102A5000DF93CF9300D00F92CDB7DEB79B838A83ED
:102A60001982A6E5B0E0E6E5F0E0808180688C930D
:102A7000E6E5F0E080818823DCF7E1E2F0E08081A8
:102A8000882F90E0887F90708035910519F086E05E
:102A9000898306C0E3E2F0E08081EA81FB818083E4
:102AA00089810F900F900F90CF91DF910895DF9360
:102AB000CF93CDB7DEB7A6E5B0E0E6E5F0E08081E4
:102AC00080618C93A6E5B0E0E6E5F0E08081806867
:102AD0008C93CF91DF910895DF93CF9300D0CDB742
:102AE000DEB783E390E09A838983E9E2F0E08981AD
:102AF0008083E0E4F0E089819A81892F992780839F
:102B0000AAE2B0E0EAE2F0E080818B7F8C93E0E41F
:102B1000F0E086E88083AAE2B0E0EAE2F0E08081BB
:102B200088608C93AAE2B0E0EAE2F0E08081806104
:102B30008C930F900F90CF91DF910895DF93CF93F7
:102B40000F92CDB7DEB7ECE2F0E080818983ABE293
:102B5000B0E0EBE2F0E080818F778C930F90CF9123
:102B6000DF910895DF93CF930F92CDB7DEB78983BE
:102B7000EBE2F0E08081829586958770882F90E067
:102B8000817090700097A1F3ECE2F0E0898180837E
:102B9000EBE2F0E08081829586958770882F90E047
:102BA000817090700097A1F3ABE2B0E0EBE2F0E04F
:102BB000808180648C930F90CF91DF910895DF9393
:102BC000CF9300D000D00F92CDB7DEB78D8319829E
:102BD0001A821B821C8217C089819A81AB81BC81B9
:102BE0000196A11DB11D89839A83AB83BC83898122
:102BF0009A81AB81BC81883823E1920720E0A2074B
:102C000020E0B20761F0EBE2F0E0808182958695EA
:102C10008770882F90E0817090700097E9F2898129
:102C20009A81AB81BC81883823E1920720E0A2071A
:102C300020E0B20799F119821A821B821C82ECE211
:102C4000F0E08D81808317C089819A81AB81BC813E
:102C50000196A11DB11D89839A83AB83BC838981B1
:102C60009A81AB81BC81883823E1920720E0A207DA
:102C700020E0B20761F0EBE2F0E08081829586957A
:102C80008770882F90E0817090700097E9F2ABE236
:102C9000B0E0EBE2F0E0808180648C930F900F90C5
:102CA0000F900F900F90CF91DF910895DF93CF9306
:102CB00000D0CDB7DEB79A8389830BC0E981FA8152
:102CC000208189819A8101969A838983822F0E942B
:102CD000DF15E981FA818081882381F70F900F90B9
:102CE000CF91DF910895DF93CF930F92CDB7DEB7E9
:102CF0008983EBE2F0E08081829586958770882F4A
:102D000090E081709070009721F4ECE2F0E089810E
:102D100080830F90CF91DF910895DF93CF93CDB74C
:102D2000DEB7EBE2F0E080818823DCF7ECE2F0E054
:102D30008081CF91DF910895DF93CF93CDB7DEB738
:102D4000ECE2F0E08081CF91DF910895DF93CF93A3
:102D500000D000D00F92CDB7DEB78FEF8D831982F0
:102D60001A821B821C8217C089819A81AB81BC8127
:102D70000196A11DB11D89839A83AB83BC83898190
:102D80009A81AB81BC81883823E1920720E0A207B9
:102D900020E0B20729F0EBE2F0E08081882324F7FD
:102DA00089819A81AB81BC81883823E1920720E038
:102DB000A20720E0B20721F0ECE2F0E080818D83F1
:102DC0008D810F900F900F900F900F90CF91DF910A
:102DD0000895DF93CF9300D00F92CDB7DEB78983EC
:102DE0007B836A838981833080F48A819B81009709
:102DF00061F08981882F90E0880F991FFC01E55BC5
:102E0000FA4F8A819B81918380830F900F900F905E
:102E1000CF91DF9108951F920F920FB60F92112458
:102E20002F933F934F935F936F937F938F939F93D2
:102E3000AF93BF93EF93FF93DF93CF93CDB7DEB7FD
:102E400080914B0590914C05009729F0E0914B053E
:102E5000F0914C050995CF91DF91FF91EF91BF91D2
:102E6000AF919F918F917F916F915F914F913F9122
:102E70002F910F900FBE0F901F9018951F920F92D9
:102E80000FB60F9211242F933F934F935F936F933D
:102E90007F938F939F93AF93BF93EF93FF93DF93B2
:102EA000CF93CDB7DEB780914D0590914E05009739
:102EB00029F0E0914D05F0914E050995CF91DF91F4
:102EC000FF91EF91BF91AF919F918F917F916F9102
:102ED0005F914F913F912F910F900FBE0F901F90D8
:102EE00018951F920F920FB60F9211242F933F93B4
:102EF0004F935F936F937F938F939F93AF93BF9302
:102F0000EF93FF93DF93CF93CDB7DEB780914F055B
:102F100090915005009729F0E0914F05F0915005F0
:102F20000995CF91DF91FF91EF91BF91AF919F9163
:102F30008F917F916F915F914F913F912F910F9062
:102F40000FBE0F901F9018952F923F924F925F9255
:102F50006F927F928F929F92AF92BF92CF92DF92A9
:102F6000EF92FF920F931F93CF93DF93CDB7DEB70E
:102F7000CA1BDB0B0FB6F894DEBF0FBECDBF0994A2
:102F80002A88398848885F846E847D848C849B84F9
:102F9000AA84B984C884DF80EE80FD800C811B8107
:102FA000AA81B981CE0FD11D0FB6F894DEBF0FBE36
:102FB000CDBFED010895FB01DC018D9101908019D9
:0C2FC0000110D9F3990B0895F894FFCF8D
:102FCC00456E74657220796F757220557365726EDB
:102FDC00616D653A0A284E6F74653A2055736572B7
:102FEC006E616D65206D757374206E6F7420696EE3
:102FFC00636C75646520737061636573290A284E70
:10300C006F74653A2050726573732023207768655E
:10301C006E20796F752061726520646F6E65290A68
:10302C0000557365726E616D6520697320616C72F9
:10303C00656164792054616B656E0A000A456E7493
:10304C00657220796F75722050617373776F72643B
:10305C000A284E6F74653A205072657373202320D2
:10306C007768656E20796F752061726520646F6E6C
:10307C0065290A004163636F756E74204861732083
:10308C006265656E2052656769737465726564204C
:10309C005375636365737366756C6C790A0055734D
:1030AC0065726E616D65206D757374206E6F742022
:1030BC00696E636C756465207370616365730A5027
:1030CC006C656173652054727920416761696E0A81
:1030DC00004D6178696D756D206E756D626572203D
:1030EC006F66206163636F756E74732028313029AD
:1030FC0020726561636865642E0A00576F756C6495
:10310C0020796F75206C696B6520746F2072657007
:10311C006C61636520616E206578697374696E6794
:10312C00206163636F756E743F2028592F4E290AF6
:10313C0000456E7465722074686520757365726ED7
:10314C00616D65206F6620746865206163636F75BF
:10315C006E7420796F752077616E7420746F207295
:10316C0065706C6163653A0A00456E746572207413
:10317C006865206E657720557365726E616D653A72
:10318C000A000A456E74657220746865206E657756
:10319C002050617373776F72643A0A004163636FF6
:1031AC00756E7420686173206265656E207265703F
:1031BC006C61636564207375636365737366756CAA
:1031CC006C792E0A00557365726E616D65206D7594
:1031DC007374206E6F7420696E636C7564652073F4
:1031EC0070616365730A004163636F756E74206E62
:1031FC006F7420666F756E642E0A00456E7465726E
:10320C0020796F757220557365726E616D653A0A1F
:10321C00284E6F74653A20507265737320232077A3
:10322C0068656E20796F752061726520646F6E65BC
:10323C00290A000A456E74657220796F75722050E8
:10324C00617373776F72643A0A284E6F74653A2013
:10325C0050726573732023207768656E20796F75C3
:10326C002061726520646F6E65290A00312E486FEB
:10327C006D6520506167650A322E5265706C616312
:10328C0065204163636F756E740A00496E636F72DB
:10329C00726563742050617373776F72642E205063
:1032AC006C656173652074727920616761696E2E3B
:1032BC000A004D6178696D756D20617474656D706F
:1032CC00747320726561636865642E20506C65614F
:1032DC0073652074727920616761696E206C61740A
:1032EC0065722E0A00557365726E616D65206E6F86
:1032FC007420666F756E642E20506C65617365204A
:10330C0074727920616761696E2E0A000A48656CD7
:10331C006C6F20696E20796F757220486F6D650A2D
:10332C00000A312D6C6F6720696E0A322D52656769
:10333C0069737465720A0048454C4C4F20494E2005
:10334C00594F555220484F4D450A00312D4F50458D
:10335C004E2054484520444F4F520A00322D434CC6
:10336C004F53452054484520444F4F520A00332DAB
:10337C004C4544204F4E0A00342D4C4544204F46BA
:10338C00460A00352D4C6F67204F75740A000A50A1
:10339C006C6561736520456E7465722056616C694D
:1033AC0064204F7074696F6E0A00444F4F5220496D
:1033BC005320414C5245414459204F50454E4544B1
:1033CC000A00444F4F52204953204F50454E454E12
:1033DC004947204E4F570A0A00444F4F52204F5036
:1033EC00454E45440A0A002D2D2D2D2D2D2D2D2D0C
:1033FC002D2D2D2D2D2D2D2D2D2D2D2D2D2D0A0041
:10340C00444F4F5220495320414C5245414459207E
:10341C00434C4F5345440A00444F4F5220495320CC
:10342C00434C4F53494E47204E4F570A0A00444FC6
:10343C004F5220434C4F5345440A0A004C454420FC
:10344C00495320414C5245414459204F4E0A0A00E1
:10345C004C4544204953204F4E204E4F570A0A00EA
:10346C004C4544204F4E0A0A004C454420495320F9
:10347C00414C5245414459204F46460A004C454464
:10348C00204953204F4646204E4F570A0A004C45C0
:10349C0044204F46460A0A000000000000000000CD
:0634AC0000081023272C8C
:00000001FF
